:100000000C9412070C945B070C945B070C945B0731
:100010000C945B070C945B070C945B070C945B07D8
:100020000C945B070C945B070C9493210C946A224C
:100030000C9401190C945B070C945B070C945B0700
:100040000C945B070C945B070C945B070C945B07A8
:100050000C945B070C9469190C945B070C945B0778
:100060000C945B070C945B070C945B070C945B0788
:100070000C945B070C945B070C945B070C945B0778
:100080000C945B070C945B070C945B070C945B0768
:100090000C945B070C945B0729001E001F002000D6
:1000A00021002200230024002500260027002D0027
:1000B0002E0000002A0001515400550056002B006C
:1000C000000014001A000800150017001C0018009A
:1000D0000C00120013002F00300000005F006000D1
:1000E000610000003900000004001600070009004C
:1000F0000A000B000D000E000F0033003400310029
:1001000028005C005D005E0057000000E1001D005B
:100110001B00060019000500110010003600370012
:100120003800350052004C0059005A005B000000B6
:10013000E0000000E300E200000000002C000000EE
:10014000000000004B004E00500051004F00000026
:1001500062006300580000703A003B003C003D0024
:100160003E003F0040004100420043004400450083
:100170000000010001510100010001000100000028
:100180000100010001000100010001000100010067
:100190000100010001000100000001000100010058
:1001A0000000010000000100010001000100010049
:1001B0000100010001000100010001000100010037
:1001C0000100010001000100000001000100010028
:1001D0000100010001000100010001000100010017
:1001E0000100010001000100010001000000010008
:1001F00000000100010000000000010000000000FC
:1002000000000100010001000100010000000100E8
:1002100001000100010001000100010001000100D6
:1002200001000100010001000100010001000000C7
:1002300001000100010001000100010000000100B7
:1002400001000100010001000100010001000100A6
:100250000100010001000000010001000100000098
:100260000100000001000100010001000100010087
:100270000100010001000100010001000100010076
:100280000100010001000000010001000100010067
:100290000100010001000100010001000100010056
:1002A0000100010001000100010000000100000048
:1002B000010001000000000001000000000000003B
:1002C0000100010001000100010000000100010027
:1002D0000100010001000100010001000100010016
:1002E0000100010001000100010001000000010007
:1002F00001000100010001000100000001000100F7
:1003000001000100010001000100010001000100E5
:1003100001000100000001000100010000000100D7
:1003200000000100010001000100010001000100C6
:1003300001000100010001000100010001000100B5
:1003400001000100000001000100010001000100A6
:100350000100010001000100010001000100010095
:100360000100010001000100000001000000010087
:10037000010000000000010000000000000001007A
:100380000100010001000100000001000100010066
:100390000100010001000100010001000100010055
:1003A0000100010001000100010000000100010046
:1003B0000100010001000100000001000100010036
:1003C0000100010001000100010001000100010025
:1003D0000100000001000100010000000100000018
:1003E0000100010001000100010001000100010005
:1003F00001000100010001000100010001000100F5
:1004000001000000010001000100010001000100E5
:1004100001000100010001000100010001000100D4
:1004200001000100010000000100000001000100C6
:1004300000000000010000000000000001000100B9
:1004400001000100010000000100010001000100A5
:100450000100010001000100010001000100010094
:100460000100010001000100000001000100010085
:100470000100010001000000010001000100010075
:100480000100010001000100010001000100010064
:100490000000010001000100000001000000010057
:1004A0000100010001000100010001000100010044
:1004B0000100010001000100010001000100010034
:1004C0000000010001000100010001000100010025
:1004D0000100010001000100010001000100010014
:1004E0000100010000000100000001000100000007
:1004F00000000100000000000000010001000100F8
:1005000001000100000001000100010001000100E4
:1005100001000100010001000100010001000100D3
:1005200001000100010000000100010001000100C4
:1005300001000100000001000100010001000100B4
:1005400001000100010001000100010001000000A4
:100550000100010001000000010000000100010095
:100560000100010001000100010001000100010083
:100570000100010001000100010001000100000074
:100580000100010001000100010001000100010063
:100590000100010001000100010001000100010053
:1005A0000100000001000000010001000000000047
:1005B0000100000000000000010001000100010036
:1005C0000100000001000100010001000100010024
:1005D0000100010001000100010001000100010013
:1005E0000100010000000100010001000100010004
:1005F00001000000010001000100010001000100F4
:1006000001000100010001000100010000000100E3
:1006100001000100000001000000010001000100D4
:1006200001000100010001000100010001000100C2
:1006300001000100010001000100010000000100B3
:1006400001000100010001000100010001000100A2
:100650000100010001000100010001000100010092
:100660000000010000000100010000000000010086
:100670000000000000000100010001000100010075
:100680000000010001000100010001000100010063
:100690000100010001000100010001000100010052
:1006A0000100000001000100010001000100010043
:1006B0000000010001000100010001000100010033
:1006C0000100010001000100010000000100010023
:1006D0000100000001000000010001000100010014
:1006E0000100010001000100010001000100010002
:1006F00001000100010001000100000001000100F3
:1007000001000100010001000100010001000100E1
:1007100001000100010001000100010001000000D2
:1007200001000000010001000000000001000000C5
:1007300000000000010001000100010001000000B4
:1007400001000100010001000100010001000100A1
:100750000100010001000100010001000100010091
:100760000000010001000100010001000100000083
:100770000100010001000100010001000100010071
:100780000100010001000100000001000100010062
:100790000000010000000100010001000100010053
:1007A0000100010001000100010001000100010041
:1007B0000100010001000100000001000100010032
:1007C0000100010001000100010001000100010021
:1007D0000100010001000100010001000000010012
:1007E0000000010001000000000001000000000006
:1007F00000000100010001000100010000000100F3
:1008000001000100010001000100010001000100E0
:1008100001000100010001000100010001000000D1
:1008200001000100010001000100010000000100C1
:1008300001000100010001000100010001000100B0
:1008400001000100010000000100010001000000A2
:100850000100000001000100010001000100010091
:100860000100010001000100010001000100010080
:100870000100010001000000010001000100010071
:100880000100010001000100010001000100010060
:100890000100010001000100010000000100000052
:1008A0000100010000000000010000000000000045
:1008B0000100010001000100010000000100010031
:1008C0000100010001000100010001000100010020
:1008D0000100010001000100010001000000010011
:1008E0000100010001000100010000000100010001
:1008F00001000100010001000100010001000100F0
:1009000001000100000001000100010000000100E1
:1009100000000100010001000100010001000100D0
:1009200001000100010001000100010001000100BF
:1009300001000100000001000100010001000100B0
:10094000010001000100010001000100010001009F
:100950000100010001000100000001000000010091
:100960000100000000000100000000000000010084
:100970000100010001000100000001000100010070
:10098000010001000100010001000100010001005F
:100990000100010001000100010000000100010050
:1009A0000100010001000100000001000100010040
:1009B000010001000100010001000100010001002F
:1009C0000100000001000100010000000100000022
:1009D000010001000100010001000100010001000F
:1009E00001000100010001000100010001000100FF
:1009F00001000000010001000100010001000100F0
:100A000001000100010001000100010001000100DE
:100A100001000100010000000100000001000100D0
:100A200000000000010000000000000001000100C3
:100A300001000100010000000100010001000100AF
:100A4000010001000100010001000100010001009E
:100A5000010001000100010000000100010001008F
:100A6000010001000100000001000100010001007F
:100A7000010001000100010001000100010001006E
:100A80000000010001000100000001000000010061
:100A9000010001000100010001000100010001004E
:100AA000010001000100010001000100010001003E
:100AB000000001000100010001000100010001002F
:100AC000010001000100010001000100010001001E
:100AD0000100010000000100000001000100000011
:100AE0000000010000000000000001000100010002
:100AF00001000100000001000100010001000100EF
:100B000001000100010001000100010001000100DD
:100B100001000100010000000100010001000100CE
:100B200001000100000001000100010001000100BE
:100B300001000100010001000100010001000000AE
:100B4000010001000100000001000000010001009F
:100B5000010001000100010001000100010001008D
:100B6000010001000100010001000100010000007E
:100B7000010001000100010001000100010001006D
:100B8000010001000100010001000100010001005D
:100B90000100000001000000010001000000000051
:100BA0000100000000000000010001000100010040
:100BB000010000000100010001000100010001002E
:100BC000010001000100010001000100010001001D
:100BD000010001000000010001000100010001000E
:100BE00001000000010001000100010001000100FE
:100BF00001000100010001000100010000000100EE
:100C000001000100000001000000010001000100DE
:100C100001000100010001000100010001000100CC
:100C200001000100010001000100010000000100BD
:100C300001000100010001000100010001000100AC
:100C4000010001000100010001000100010001009C
:100C50000000010000000100010000000000010090
:100C6000000000000000010001000100010001007F
:100C7000000001000100010012036B006500790013
:100C800062006F00610072006400000016037100D2
:100C90006D006B006200750069006C006400650007
:100CA000720000000403090409026D00040100A0A1
:100CB000FA090400000103010100092111010001EA
:100CC0002240000705810308000A0904010001030E
:100CD000010200092111010001224D0007058203D4
:100CE00008000A09040200010300000009211101A3
:100CF00000012236000705830308000A09040300E7
:100D0000010300000009211101000122390007053B
:100D100084032000011201100100000008EDFE60B4
:100D20006001000102000105010906A10105071982
:100D3000E029E715002501950875018102050819CC
:100D4000012905950575019102950175039101052C
:100D500007190029F71500250195F875018102C0D2
:100D600005010980A10185021601002603001A81F0
:100D7000002A8300751095018100C0050C0901A1AE
:100D8000018503160100269C021A01002A9C0275A7
:100D90001095018100C005010902A1010901A1000E
:100DA000050919012905150025019505750181021F
:100DB0009501750381010501093009311581257FF0
:100DC00095027508810609381581257F95017508FA
:100DD0008106050C0A38021581257F950175088169
:100DE00006C0C005010906A101050719E029E7159C
:100DF000002501950875018102950175088101059D
:100E00000819012905950575019102950175039150
:100E1000010507190029FF150026FF009506750832
:100E20008100C00011241FBECFEFD0E2DEBFCDBFD6
:100E300004B603FE27C080917A0290917B02A091B4
:100E40007C02B0917D028730904BA740B04BD1F42B
:100E500010927A0210927B0210927C0210927D0214
:100E600014BE84B7877F84BF0FB6F894A89580918D
:100E70006000886180936000109260000FBEE0E027
:100E8000F8EF099511E0A0E0B1E0EAE6FBE400E04C
:100E90000BBF02C007900D92A034B107D9F722E032
:100EA000A0E4B1E001C01D92AA37B207E1F70E94A9
:100EB000E31E0C94B3250C94000090E080E00895AC
:100EC0000895089581E00895089581E008950C94AF
:100ED00062070E9478112FEF84E39CE0215080404C
:100EE0009040E1F700C000000C948E19FF920F9320
:100EF0001F93CF93DF938C01FC01C081D18180913E
:100F0000980181113FC082818823B9F1CE010E94EE
:100F1000DF16F82E682FCE010E948516BE018F2D98
:100F20000E94BD08EC01B8010E946707882309F4FC
:100F30004AC0B801CE010E94CD0A882309F443C0FB
:100F4000C531F0E7DF0718F5C23080E7D80708F0B1
:100F50004BC0C115E0E7DE0789F1C130D047D1F1C0
:100F600081E08093420180934301C801DF91CF91DA
:100F70001F910F91FF900C946507CE010E94B4164B
:100F8000F82ECCCFCE010E94DF16BE01C9CFCC33E4
:100F900080E7D80709F4ACC0CD33D04709F7F80192
:100FA0008281882309F4CBC0109243010E94331937
:100FB000909341018093400180E2A7C0F8018281B3
:100FC00081110E94690780E0DF91CF911F910F91FD
:100FD000FF900895F80182818823A9F380913A0255
:100FE000816080933A02EFCFF8018281882309F46F
:100FF000BCCF0E949018811102C00E9476180E94F6
:10100000AD1890E090936C0280936B02FE01E35068
:10101000F04780916B028160E231F105C8F4ED5E2A
:10102000F74F0C94602525083108350839083D082C
:101030004108450849084D085108550859085D08F8
:101040006108650869086D08710880916B0282600B
:1010500080936B0280916B020E94B1180E947811FC
:10106000B2CF80916B028460F3CF80916B02886075
:10107000EFCF80916B028061EBCF80916B02806239
:10108000E7CF80916B028064E3CF80916B02806830
:10109000DFCF80916B028460EACF80916B028E7FFC
:1010A000D7CF80916B028D7FD3CF80916B028B7FE6
:1010B000CFCF80916B02877FCBCF80916B028F7EE9
:1010C000C7CF80916B028F7DC3CF80916B028F7BE6
:1010D000BFCF80916B028F77BBCF80916B028B7FEC
:1010E000EACF90916B02892F97FB87F98058B0CF98
:1010F000F8018281882361F0109242010E94331925
:10110000909341018093400182E00E94020F5BCFE7
:101110008091420181110FC0809140019091410165
:101120000E943F19883C910530F486E20E94D70D59
:1011300086E20E94B30E82E00E94090F44CF8091A4
:10114000430181110FC080914001909141010E94A3
:101150003F19883C910530F487E20E94D70D87E261
:101160000E94B30E80E2E8CF0C941C0B0C941E0B73
:101170000C9464070C94B8080895972F70E023E14D
:10118000929F600D711D1124FB019FE5899FE00D69
:10119000F11D1124EE0FFF1FE856FF4F859194912A
:1011A0000895FC01EE0FFF1FE858F34F85919491CD
:1011B00008950E94BD080E944C0A811520E4920700
:1011C00008F08DC0811540E3940708F0E8C0803E28
:1011D000910508F071C0803C910508F0CCC0883AB8
:1011E000910580F4853A910508F0CAC081309105D7
:1011F00009F46EC020F08430910508F069C090E0D9
:1012000080E008958D3B9105D0F7883A910509F467
:1012100004C1893A910509F403C18A3A910509F498
:1012200002C18B3A910509F401C18C3A910509F488
:1012300000C18B3B910509F4FFC08C3B910509F47B
:10124000FEC08D3A910509F4FDC0803B910509F47B
:10125000FCC08E3A910509F4FBC08F3A910509F460
:10126000FAC0813B910509F4F9C0823B910509F46C
:10127000F8C0833B910509F4F7C0843B910509F45C
:10128000F6C0853B910509F4F5C0863B910509F44C
:10129000F4C0873B910509F4F3C0883B910509F43C
:1012A000F2C0893B910509F4F1C08A3B910509F42C
:1012B000F0C080E094E408958F3F910509F048F470
:1012C000803F910508F067C0883E910508F097CFF0
:1012D0000895811520E2920708F05FC008958115F6
:1012E00043E5940760F5811522E5920708F062C096
:1012F000811541E5940708F058C0811520E5920753
:1013000008F450C09C0154E0369527955A95E1F7B2
:10131000922F9370482F437021E030E002C0220FDB
:10132000331F4A95E2F73C68392B86958695837082
:1013300040E2849FC0011124822B932B08958115D4
:1013400045E5940750F4811524E5920708F446C05A
:10135000982F8827846F906A0895811546E5940731
:1013600008F450C09C0130569F702115304108F0A0
:1013700046CF90620895805C91090E94D10808953B
:10138000853A910509F443C0863A910509F042C0B7
:1013900082E890E40895906508959F70EECF9927B4
:1013A000906C08959F70906A0895982F8827816F98
:1013B000906A0895AC014370552721E030E002C0E7
:1013C000220F331F4A95E2F78695869540E2849F67
:1013D000C0011124822B932B9C680895AC014370AB
:1013E000552721E030E002C0220F331F4A95E2F773
:1013F0008695869540E2849FC0011124822B932B11
:101400009A680895982F882788279F71B2CF81E81E
:1014100090E4089583E890E4089582EE94E40895BA
:1014200089EE94E408958AEE94E4089585EB94E4BB
:10143000089586EB94E4089583EB94E4089584EB97
:1014400094E4089587EB94E408958CEC94E4089573
:101450008DEC94E4089583E895E408958AE895E492
:10146000089582E995E4089584E995E4089581E278
:1014700096E4089583E296E4089584E296E408955C
:1014800085E296E4089586E296E4089587E296E47C
:1014900008958AE296E41CCF8238910549F1B0F4B0
:1014A0008133910509F45CC048F48932910509F44F
:1014B00052C08A32910509F458C0089585339105C8
:1014C00009F444C08933910599F00895833E91054C
:1014D00031F138F4803E910591F0823E9105B1F0F2
:1014E0000895863E910511F1873E910541F10895D9
:1014F00020916B022370C9F080EE90E00895209156
:101500006B0220FF12C089E390E0089520916B02E6
:1015100022FF0BC024FF2EC090E080E008952091B0
:101520006B0222FD2AC024FDF7CF089520916B02A3
:1015300023FFFBCF24FDF0CF87EE90E008952091AC
:101540006B0223FFF0CF86EE90E0089520916B02AE
:1015500025FD16C0089520916B0225FD14C0089545
:1015600020916B0226FD12C0089520916B0226FD8A
:1015700010C0089583EE90E0089582EE90E0089503
:1015800089E290E0089585E390E008958AE290E092
:10159000089581E390E0C9CF08950F931F93CF93EF
:1015A0008C01FB018281811106C0C1E08C2FCF919B
:1015B0001F910F910895C0915101C11125C00531AE
:1015C000104799F70E94CC0A81E0809351010E9454
:1015D00033199093500180934F011092440110925F
:1015E0004601109245011092480110924701109255
:1015F0004A011092490110924C0110924B01109235
:101600004E0110924D01D2CF80914F019091500127
:101610000E943F19883C910540F680914401E82FD3
:10162000F0E0EE0FFF1FEB5BFE4F118300838F5F37
:1016300080934401C0E0BACF0C9460070C9461071A
:1016400085B7806885BF85B7806885BFA6E2B1E0B1
:1016500061E070E08D91E82FE295EF70F0E041A13C
:101660008F709B0101C0220F8A95EAF7922F909507
:10167000942391A382A1822B82A381E0AB32B8078D
:1016800049F7A3E1B1E061E070E08D91E82FE295C8
:10169000EF70F0E041A18F709B0101C0220F8A958D
:1016A000EAF7922F9095942391A382A1822B82A393
:1016B00081E0A632B80749F7E6E6F1E0A2E5B1E03D
:1016C0008AE791E011921192119211921D921D924E
:1016D0001D921D928E179F07A9F70C94B4082F92A4
:1016E0003F924F925F926F927F928F929F92AF92B2
:1016F000BF92CF92DF92EF92FF920F931F93CF93FF
:10170000DF93CDB7DEB72C970FB6F894DEBF0FBED0
:10171000CDBF82E5882E81E0982E26E231E03A8323
:10172000298398868F8222242394312CC12CD12C9A
:101730007601C394AA24A394AF81B8854D905D909F
:101740006D907C901397FD0110821182128213829A
:10175000A981BA818D91BA83A983E82FE295EF70B0
:10176000F0E091A18F70910102C0220F331F8A9582
:10177000E2F73C832B83822F892B81A382A1B22E97
:10178000B0948B2182A330EA3A95F1F743E151E01E
:101790005E834D8390E080E0AD81BE813D91BE834C
:1017A000AD83A32FA295AF70B0E090960C91AF815E
:1017B000B8854D915D916D917C9149875A876B8772
:1017C0007C873F70A10102C0440F551F3A95E2F794
:1017D0009A01202309F081C0B701A601082E04C098
:1017E000440F551F661F771F0A94D2F78A019B0189
:1017F00049855A856B857C85402B512B622B732B39
:10180000AF81B8854D935D936D937C93139701964B
:101810008331910509F0C0CF81A1B822B1A282A184
:10182000BB818B2B82A3EF81F88580819181A2817E
:10183000B381481659066A067B0641F0A0927A01E8
:101840000E94331990937C0180937B012F8138850E
:101850002C5F3F4F38872F8349815A814B5251402B
:1018600009F06ACF80917A018823D9F080917B01B9
:1018700090917C010E943F19069798F0E6E6F1E00E
:1018800086E691E0D4014D915D916D917D914D0180
:1018900041935193619371938A179B0799F7109223
:1018A0007A010E94B60881E02C960FB6F894DEBF4C
:1018B0000FBECDBFDF91CF911F910F91FF90EF90A1
:1018C000DF90CF90BF90AF909F908F907F906F9060
:1018D0005F904F903F902F90089500E010E09801A6
:1018E00087CF94E0899FF0011124EA59FE4F60816F
:1018F00071818281938108950895909382018093EC
:1019000081010895E0918101F0918201309721F0E9
:101910000190F081E02D099480E00895E09181012B
:10192000F0918201309721F00280F381E02D09943B
:101930000895E0918101F0918201309721F00480B7
:10194000F581E02D0994089520917F013091800167
:101950002817390771F09093800180937F01E091FF
:101960008101F0918201309721F00680F781E02D0E
:101970000994089520917D0130917E01281739073F
:1019800071F090937E0180937D01E0918101F0914F
:101990008201309721F00084F185E02D09940895AB
:1019A00008950C94D00C0E942A190E94200B0C94CC
:1019B000FA194F925F926F927F928F929F92AF929D
:1019C000BF92DF92EF92FF920F931F93CF93DF931B
:1019D000CDB7DEB72A970FB6F894DEBF0FBECDBFE6
:1019E0000E946F0B24E8E22E21E0F22E10E000E0CE
:1019F000D02E802F0E94710C4B015C01F7014190A9
:101A00005190619071907F01481459046A047B04DD
:101A100009F476C080913A0281FD0E947C0C90E02E
:101A200080E0482459246A247B24B301A201082EB3
:101A300004C076956795579547950A94D2F740FF6D
:101A40005AC08E83DF82412C512C3201439404C052
:101A5000440C551C661C771C8A95D2F7842095206F
:101A6000A620B72081E089288A288B2809F480E005
:101A700088870E9433198160782F9A8789874E81E1
:101A80005F8168858A850E94AD0D000F111F000FD0
:101A9000111FF801EC57FE4F80819181A281B38123
:101AA00084259525A625B72580839183A283B383BA
:101AB0000E947D1C0E94820C909183018917B9F1CC
:101AC0000E94820C809383012A960FB6F894DEBFA1
:101AD0000FBECDBFDF91CF911F910F91FF90EF907F
:101AE000DF90BF90AF909F908F907F906F905F90AE
:101AF0004F900C94BA0801968331910509F095CF67
:101B00000F5F1F4F0530110509F072CF8FEF8983EA
:101B10008A831B820E9433198160782F9D838C8376
:101B200049815A816B818D810E94AD0DC1CF2A966A
:101B30000FB6F894DEBF0FBECDBFDF91CF911F91DE
:101B40000F91FF90EF90DF90BF90AF909F908F909C
:101B50007F906F905F904F900895CF93DF93CDB7B4
:101B6000DEB72B970FB6F894DEBF0FBECDBF4F8305
:101B7000588769877A878B871E821D8285E0FE01E0
:101B80003796DE01119601900D928A95E1F7498111
:101B90005A816B817C818D819E812B960FB6F89442
:101BA000DEBF0FBECDBFDF91CF910C942A148823E6
:101BB00009F4D8C0823871F40E94820C81FDD2C031
:101BC00089E30E947F170E94471889E30E94BC178F
:101BD0000C944718833859F40E94820C80FDC2C0CF
:101BE00083E50E947F170E94471883E5EFCF843872
:101BF00059F40E94820C82FDB5C087E40E947F17D1
:101C00000E94471887E4E2CF9CEF980F913A18F4AE
:101C10000E947F17DDCF90E2980F983050F48770C4
:101C200091E001C0990F8A95EAF7892F0E94FE176B
:101C3000CFCF9BE5980F933070F4853A31F0863A18
:101C400039F083E890E00C94A40C81E890E0FBCF9D
:101C500082E890E0F8CF98E5980F953108F082C0BF
:101C6000883A09F440C0893A09F440C08A3A09F434
:101C700040C08B3A09F440C08C3A09F440C08B3B19
:101C800009F440C08C3B09F440C08D3A09F440C0CF
:101C9000803B09F440C08E3A09F440C08F3A09F401
:101CA00040C0813B09F440C0823B09F440C0833B03
:101CB00009F440C0843B09F440C0853B09F440C0AE
:101CC000863B09F440C0873B09F440C0883B09F4D7
:101CD00040C0893B09F440C08A3B09F440C090E011
:101CE00080E00C94BA0C82EE90E0FBCF89EE90E09D
:101CF000F8CF8AEE90E0F5CF85EB90E0F2CF86EB5F
:101D000090E0EFCF83EB90E0ECCF84EB90E0E9CF75
:101D100087EB90E0E6CF8CEC90E0E3CF8DEC90E0A9
:101D2000E0CF83E891E0DDCF8AE891E0DACF82E985
:101D300091E0D7CF84E991E0D4CF81E292E0D1CF96
:101D400083E292E0CECF84E292E0CBCF85E292E0D4
:101D5000C8CF86E292E0C5CF87E292E0C2CF8AE2A6
:101D600092E0BFCF0895882309F44BC0823871F404
:101D70000E94820C81FF45C089E30E947F170E9468
:101D8000471889E30E94BC170C944718833859F40C
:101D90000E94820C80FF35C083E50E947F170E945D
:101DA000471883E5EFCF843859F40E94820C82FFF4
:101DB00028C087E40E947F170E94471887E4E2CF7B
:101DC0009CEF980F913AF0F290E2980F983050F40F
:101DD000877091E001C0990F8A95EAF7892F0E94D8
:101DE0000418D2CF9BE5980F933020F490E080E068
:101DF0000C94A40C885A853120F490E080E00C9477
:101E0000BA0C0895882321F00E94FE170C944718FD
:101E10000895882321F00E9404180C94471808950F
:101E20008F929F92AF92BF92DF92EF92FF920F93A9
:101E30001F93CF93DF937C01D62FC72FFC01058121
:101E400002950F70128111110E941D180E947817BF
:101E5000D82E882371F0112321F180E28D0F883074
:101E600000F182E00E9462170E94781791E0D82E5C
:101E7000D926EC2FE295EF70F0E0EF5BF04F0C9479
:101E80006025530F530FA30FA30FE50F0110800F11
:101E9000800F0C10800FA410A4101711800F800F5A
:101EA0002011D12CE6CF0C2F0F70C07F11F00295BE
:101EB000007F1123A9F0002359F080E28D0F8830B4
:101EC00010F0D11109C0802F0E94FE170E94471800
:101ED0008D2F0E94D70D14C0802F0E940F18F6CFAF
:101EE0008D2F0E94B30E002359F080E28D0F8830B1
:101EF00010F0D11124C0802F0E9404180E944718AE
:101F0000DD2009F4A4C10E94551780FDA0C1F7018E
:101F100012820E944F170E94C915C7010E943311F7
:101F20000E944F17DF91CF911F910F91FF90EF907B
:101F3000DF90BF90AF909F908F900C94EA15802F08
:101F40000E941518DBCFFC2FFF70BF2EC07FC03260
:101F500019F0B29480EFB822DD2369F0D13029F175
:101F6000112369F1002359F0F701858180FFB0CF7B
:101F70008F70858304C0112361F0011104C08B2D83
:101F80000E94020FBDCF8B2D0130D1F70E94311876
:101F9000B7CF011106C00E9434188B2D0E94090F83
:101FA000AFCF013009F4ACCFF6CF112321F00630CA
:101FB00008F0A6CFE4CF053008F0A2CFEECF002383
:101FC00061F38D2F0E94B30E9BCF8C2F8695869543
:101FD000837069F0813009F093CF8D2F9C2F93701F
:101FE000111102C090E080E00E94BA0C89CF8D2FC1
:101FF0009C2F9370111102C090E080E00E94A40C0D
:102000007FCF8D2F112329F00E94861B0E94721C06
:1020100077CF0E94EE1BFACF8C2F837009F047C058
:1020200011116ECF2D2F229526952770220F220F8A
:102030006D2F6F70862E912CB12CA12C022E04C016
:10204000880C991CAA1CBB1C0A94D2F760E070E0B3
:10205000CB01D4FF0FC06FE070E080E090E004C0DF
:10206000660F771F881F991F2A95D2F76095709584
:1020700080959095C695C695C370C23051F080F496
:10208000682979298A299B29C13071F00E9472152B
:1020900037CF682979298A299B290E948E1530CF4C
:1020A0000E947215C501B4010E94561529CF86956C
:1020B000112311F08C2F8170882309F421CF2D2F4B
:1020C000229526952770220F220F6D2F6F70862E76
:1020D000912CB12CA12C022E04C0880C991CAA1C96
:1020E000BB1C0A94D2F760E070E0CB01D4FF0FC0B4
:1020F0006FE070E080E090E004C0660F771F881FFB
:10210000991F2A95D2F76095709580959095C69500
:10211000C695C370C23051F080F4682979298A29A4
:102120009B29C13071F00E944C16EACE68297929AA
:102130008A299B290E946816E3CE0E944C16C5018D
:10214000B4010E943016DCCEE0E2ED0FE53108F07C
:1021500062C0F0E0E255FF4E0C946025C310C3103E
:10216000C310C310C310C310C310C310C310C310D7
:10217000C310C310C310C310C310C310D010DE109F
:10218000E510EC10F610DF708C2F8F71112321F009
:102190000E94C9158D2FF4CE0E94EA158D2FFECE18
:1021A000112341F0053008F0ABCE8C2F8F710E94C7
:1021B0000F16A6CE063008F0A3CEF7CF8C2F8F7166
:1021C000112339F00E94C9159BCE8C2F8F711123DA
:1021D000C9F30E94EA1594CE112329F08C2F8F7138
:1021E0000E94B4158DCE0E94AA158ACE112349F003
:1021F000CF718C2F0E94C91563E08C2F0E94591754
:102200007FCE81E00E946217023008F479CE82E02E
:102210000E94621775CE112329F0011159CE8C2F1F
:102220008F71D0CF0111CDCE8C2F8F71D2CF4C2F8B
:102230004F706D2FC7010E945D070E94D31460CEBE
:102240004C2F4F706D2FC7010E94BC0859CEDF91F3
:10225000CF911F910F91FF90EF90DF90BF90AF90C3
:102260009F908F9008950F931F93CF93DF93EC016E
:10227000988189812B813C81232B39F08F3F19F480
:1022800081E09F3F19F080E001C081E080FD17C030
:10229000CE010E947607882391F0688179818A8136
:1022A0000E942B178C010E9484160E944B15B801C6
:1022B000CE01DF91CF911F910F910C94100FDF9100
:1022C000CF911F910F9108950E941D180E942E1802
:1022D0000E94F0170E9447180E941F1D0E94721C46
:1022E00090E080E00E94A40C90E080E00C94BA0C96
:1022F0000E940C180C9464110E942117E92FE2959A
:10230000EF70E250EE30E0F4F0E0E757FE4E0C9450
:10231000602597119711A011A011A211A011A01171
:10232000A01197119711A711A011A011A711803F1B
:1023300019F020F4803E20F481E00895843FE1F319
:1023400080E00895803EC0F3813FD1F7F5CF93FB45
:10235000882780F90895CF93DF9300D000D01F9293
:10236000CDB7DEB70F900F900F900F900F90DF91C9
:10237000CF910895CF93DF9300D000D000D0CDB798
:10238000DEB726960FB6F894DEBF0FBECDBFDF9145
:10239000CF9108951F93CF93DF93C091990116E0D9
:1023A00080919A018C1304C0DF91CF911F91089501
:1023B000D0E01C9FF0011D9FF00D1124E556FE4F4B
:1023C0004081518162817381848195810E94BA111B
:1023D0002196C770E5CF4091CB015091CC0160911F
:1023E000CD017091CE018091CF019091D0010C94DC
:1023F000BA111F93CF93DF938091D001807FD1F4E6
:102400008091CD018823B1F080919901D0919A01FA
:10241000B091CB01C091CC014091CE015091CF0140
:10242000A1E0BF3F09F0A0E0BA016095709516E009
:10243000D81304C0DF91CF911F91089521E0411579
:10244000510521F02A2FCF3F09F020E090E020FD38
:1024500038C0189FF001199FF00D1124E556FE4F6A
:1024600021812C132EC020812B132BC022812111FE
:1024700028C0238134812417350700F1241B350B34
:10248000283C3105F0F42091D0012F702061209379
:10249000D00126E0289FF001299FF00D1124E0567D
:1024A000FE4F80818F70806180838BEC91E00E9471
:1024B0003311DF91CF911F910C94CA11260F371F52
:1024C000DFCF01968770B4CFAF92BF92CF92DF92E9
:1024D000EF92FF920F931F93CF93DF93CDB7DEB7A9
:1024E00061970FB6F894DEBF0FBECDBF8C0185E0BB
:1024F000F801DE011D9601900D928A95E1F7D80151
:102500004C9111965C9111971296EC903091CB0101
:102510006091CC018091CE019091CF0121E0009794
:1025200031F06F3F19F421E03F3F09F020E0B22F76
:10253000B170BB2E20FD80C1F801C380D480A09073
:10254000CD01AA2009F427C1C816D906D0F1D601B9
:10255000A81BB90BCD01FF24F394883C910508F02A
:10256000F12C8091D001982F907FFF2009F4CAC0F0
:10257000911187C0FE2C651329C0341327C0E110C8
:1025800025C08F7080618093D0010E94EB118BEC8D
:1025900091E00E9433118091D001F80185838F2D45
:1025A00061960FB6F894DEBF0FBECDBFDF91CF911D
:1025B0001F910F91FF90EF90DF90CF90BF90AF9061
:1025C0000895809590958C0D9D1DC5CF81E0CD28F7
:1025D00031F05F3F19F481E04F3F09F080E080FD6A
:1025E00024C081E08E25F82FF170DF2E80FF3FC0E0
:1025F0008091990120919A0136E0821318C04D878D
:102600005E878D859E850E942117292F22952F7028
:10261000223008F1243030F59F7009F1D801159669
:102620009C91907FE1F4FB2CBACF80E0DCCF90E06E
:10263000389FF001399FF00D1124E556FE4F61815E
:10264000561306C06081461303C062816E110FC02D
:1026500001968770D2CF9F7011F0882321F3805E9E
:10266000883008F3C8010E943311BD2CDCCFEE2066
:1026700009F495CF8091D00181608093D001F12C35
:102680008ECF651312C0341310C0E1100EC0F801D4
:102690008583C8010E94331186E0F801ABECB1E0FC
:1026A00001900D928A95E1F741C04D875E878D8537
:1026B0009E850E947C11882309F4C8C0EE2009F48D
:1026C000C5C08091D001803270F02091CB01309153
:1026D000CC0138872F831986DB86CA868C87CE018A
:1026E00007960E94331186E0F801ABECB1E001904F
:1026F0000D928A95E1F70E94F9110E94EB11FF24D7
:10270000F3944DCF911115C07C2DD98AC88A6E2DB6
:1027100089890E94AB118BEC91E00E94331186E015
:10272000EBECF1E0DF011D928A95E9F70E94EB11D5
:1027300036CF651312C0341310C0E1100EC0F8017B
:102740008583C8010E943311EBECF1E086E0DF01E4
:102750001D928A95E9F7FA2C22CF4D875E878D85E9
:102760009E850E947C11882309F470C0EE2009F434
:102770006DC08091D001803208F4B5CF2091CB019B
:102780003091CC013A8329831B82DD82CC828E83F7
:10279000CE010196A6CFC816D90638F1F601E81B7E
:1027A000F90BCF01F12C883C910508F03DC0FE2CBF
:1027B000EE2009F44BC0651326C0341324C0809169
:1027C000D00180FD17C0982F907FA1F0D8011596F9
:1027D0008C931597903F09F45CCF982F907F905F72
:1027E0008F70892B15968C9354CF809590958C0D76
:1027F0009D1DD8CF86E0F801ABECB1E001900D92C1
:102800008A95E1F7CCCE4D875E878D859E850E94A7
:102810007C11811168CF8091D00181608093D001BB
:10282000C8010E943311BBCE7C2DD98AC88A6E2D77
:1028300089890E94AB1173CFEE2041F04D875E87EE
:102840008D859E850E947C1181114DCFC8010E940B
:10285000331155CF1F93CF93DF93CDB7DEB72C97AE
:102860000FB6F894DEBF0FBECDBF4F835887698780
:102870007A878B879C87CE0107960E9464128823F3
:1028800009F442C09F8188852A853B85232B39F036
:102890008F3F19F481E09F3F19F080E001C081E093
:1028A00080FD08C04F81588569857A858B859C8518
:1028B0000E94BA1116E08091990190919A018917AE
:1028C00009F467C0819FC001112485569E4F0E9464
:1028D0006412882309F45DC0E09199011E9FF00104
:1028E0001124E556FE4F40815181628173818481BC
:1028F00095810E94BA118091990190E001968770AC
:10290000992780939901D7CF86E0FE013796DE01A3
:10291000119601900D928A95E1F79F8188852A850D
:102920003B85232B39F08F3F19F481E09F3F19F04D
:1029300080E001C081E080FDBDCF20919A0130E0B0
:10294000C901019687709927409199014817190686
:1029500099F096E0929FD001939FB00D1124A55657
:10296000BE4FFE01319601900D929A95E1F780934A
:102970009A010E94CA119ECF0E94781110929A016A
:102980001092990186E0EBECF1E0DF011D928A954F
:10299000E9F72C960FB6F894DEBF0FBECDBFDF91DE
:1029A000CF911F910895EF92FF920F931F93CF93B2
:1029B000DF938C01892B81F0F12CEE24E394E80164
:1029C0002196F8018491843770F4843008F05FC058
:1029D0008130B1F08230A1F1DF91CF911F910F9141
:1029E000FF90EF900895853709F44CC008F43DC07E
:1029F0009CE7980F903780F78F770E94B30E49C0FD
:102A00000E5F1F4FFE01849190E2980F983060F4A2
:102A10008770FE2D01C0FF0F8A95EAF78F2F0E9465
:102A200020180E94471802C00E94D70D8F2D815098
:102A300030F2EFE9FFE03197F1F700C00000F7CF87
:102A40000E5F1F4FFE01849190E2980F983050F472
:102A50008770FE2D01C0FF0F8A95EAF78F2F0E9425
:102A60002618DFCF0E94B30EE1CF0E5F1F4FFE018D
:102A7000C491C150D8F28FE99FE00197F1F700C0EF
:102A80000000F7CF0E5F1F4FFE01F490CFCF0E94E2
:102A9000D70D8E01CBCF089560931102709312026F
:102AA00080931302909314020C9464110F931F935C
:102AB0000091110210911202209113023091140220
:102AC000DC01CB01802B912BA22BB32B8093110225
:102AD00090931202A0931302B09314021F910F91CE
:102AE0000C9464110F931F93009111021091120224
:102AF0002091130230911402DC01CB018023912339
:102B0000A223B3238093110290931202A093130285
:102B1000B09314021F910F910C9464110F931F93A3
:102B200000911102109112022091130230911402AF
:102B3000DC01CB0180279127A227B32780931102C4
:102B400090931202A0931302B09314021F910F915D
:102B50000C94641110920D0210920E0210920F024A
:102B6000109210020C94641141E050E060E070E0BB
:102B700004C0440F551F661F771F8A95D2F74093F4
:102B80000D0250930E0260930F02709310020C948A
:102B9000641141E050E060E070E004C0440F551F54
:102BA000661F771F8A95D2F780910D0290910E02D1
:102BB000A0910F02B0911002842B952BA62BB72B5E
:102BC00080930D0290930E02A0930F02B093100217
:102BD0000C94641141E050E060E070E004C0440FE8
:102BE000551F661F771F8A95D2F7409550956095BF
:102BF000709580910D0290910E02A0910F02B091FC
:102C0000100284239523A623B72380930D0290936B
:102C10000E02A0930F02B09310020C94641141E0D5
:102C200050E060E070E004C0440F551F661F771F3E
:102C30008A95D2F780910D0290910E02A0910F0219
:102C4000B091100284279527A627B72780930D02FD
:102C500090930E02A0930F02B09310020C94641193
:102C60000F931F9300910D0210910E0220910F02FD
:102C700030911002DC01CB01802B912BA22BB32BC6
:102C800080930D0290930E02A0930F02B093100256
:102C90001F910F910C9464110F931F9300910D02DB
:102CA00010910E0220910F0230911002DC01CB0135
:102CB00080239123A223B32380930D0290930E02CD
:102CC000A0930F02B09310021F910F910C94641106
:102CD0000F931F9300910D0210910E0220910F028D
:102CE00030911002DC01CB0180279127A227B32766
:102CF00080930D0290930E02A0930F02B0931002E6
:102D00001F910F910C946411089523E1929F800DFF
:102D10001124982F977071E001C0770F9A95EAF708
:102D200086958695869525E0829FC001112450E006
:102D300040E0A62FB0E0FC01E40FF51FEF52FE4F7C
:102D400060819D01042E02C0369527950A94E2F712
:102D50002170219526272723262720834F5F5F4F49
:102D60004530510541F7089523E1929F800D1124CC
:102D7000982F977086958695869525E0829FA0016D
:102D8000112470E060E080E0FA01E60FF71FEF52D7
:102D9000FE4F208130E0092E02C0369527950A9417
:102DA000E2F721703327062E01C0220F0A94EAF7BA
:102DB000822B6F5F7F4F6530710531F70895BF92A9
:102DC000CF92DF92EF92FF920F931F93CF93DF93F7
:102DD0008C01C0900D02D0900E02E0900F02F09096
:102DE00010028091110290911202A0911302B091F1
:102DF0001402C82AD92AEA2AFB2ACFE1D0E0BC2E45
:102E0000D701C6010C2E04C0B695A7959795879556
:102E10000A94D2F780FD0EC0219788F7B12C8B2D34
:102E2000DF91CF911F910F91FF90EF90DF90CF90A6
:102E3000BF900895B8018C2F0E94D908019761F3C3
:102E4000EECFCF93DF93EC010E94DF16BE01DF913E
:102E5000CF910C94D9081F93CF93DF93EB019091FE
:102E60009801992331F0CB01DF91CF911F910C9400
:102E70002117882379F0CB010E94DF16182F682FC5
:102E8000CE010E948516BE01812FDF91CF911F9147
:102E90000C94D908CB010E94B416182FF4CF80915E
:102EA0001502859585958595089580911502877001
:102EB000089598E0899F90011124622B6093150278
:102EC0000C94C91590911502809589238093150261
:102ED000282F277061F4282F082E000C330B92172F
:102EE000130629F08595859585950C94EA15089526
:102EF00090911502977081E009F480E00895909117
:102F000012019923E1F090916B0297FF18C0E82F0E
:102F1000E695E695E695EF3139F120910001309183
:102F20000101E20FF32FF11D877021E030E001C0B5
:102F3000220F8A95EAF78181822B8183089520915F
:102F4000000130910101F90132969FEF40E051916B
:102F5000851751F09F3F19F4511101C0942F4F5F15
:102F60004E31A9F79F3F09F40895290F311D97FDB0
:102F70003A95F90182830895909112019923F1F015
:102F800090916B0297FF1AC0E82FE695E695E695BB
:102F9000EF3129F12091000130910101E20FF32F6F
:102FA000F11D282F277081E090E001C0880F2A953D
:102FB000EAF780959181892381830895209100010A
:102FC00030910101F9013296205E3F4F91918913B2
:102FD00003C0DF0111971C92E217F307B9F70895B8
:102FE00081E090E0E0910001F0910101E80FF91F0C
:102FF0001082019680329105A9F7089590913902C7
:10300000892B809339020895982F909580913902E9
:10301000892380933902089510923902089590917E
:103020003802892B809338020895982F90958091CB
:103030003802892380933802089510923802089547
:1030400090913702892B809337020895982F90959D
:1030500080913702892380933702089510923702B6
:1030600008958093160208951092160208952091F3
:10307000000130910101F9013196205E3F4F80E05F
:10308000919191118F5FE217F307D1F70895E091C5
:103090000001F0910101809139028083E0910001EB
:1030A000F0910101808190913802892B8083E09119
:1030B0000001F0910101808190913702892B80837A
:1030C00090911602992361F0E0910001F0910101C5
:1030D0008081892B80830E943718811110921602FB
:1030E00080910001909101010C948E0C6DEE7EEFA9
:1030F00090E080E00E949D2560E082E090E00E94E8
:103100008B2560E083E090E00E948B2560E084E006
:1031100090E00E948B2560E085E090E00C948B2588
:1031200090E080E00E94852521E08D3E9E4F09F0D1
:1031300020E0822F089582E090E00C947D25682F96
:1031400082E090E00C948B2583E090E00C947D2548
:10315000682F83E090E00C948B2584E090E00C9441
:103160007D25682F84E090E00C948B25809171027E
:10317000843039F110923B0288E190E020E40FB6F0
:10318000F894A895809360000FBE2093600080E0C3
:103190000E94BA0883B7817F846083BF83B7816050
:1031A00083BF7894889583B78E7F83BF0FB6F894DA
:1031B000A895809160008861809360001092600003
:1031C0000FBE089508950895CF930E94E2180E94BB
:1031D0006F0B0E94E318C0E08C2F0E94710C672BCC
:1031E000682B692B31F4CF5FC530B1F780E0CF9108
:1031F000089581E0FCCF0E9478110E94820C0C940B
:10320000BA081F920F920FB60F9211248F939F93BB
:10321000AF93BF9380913B02811113C080916702ED
:1032200090916802A0916902B0916A024196A11D35
:10323000B11D8093670290936802A0936902B093D6
:103240006A02BF91AF919F918F910F900FBE0F9027
:103250001F90189582E084BD93E095BD9AEF97BDCD
:1032600080936E0008952FB7F89480916702909133
:103270006802A0916902B0916A022FBF0895CF92AF
:10328000DF92EF92FF920F931F932FB7F894409124
:103290006702509168026091690270916A022FBFC3
:1032A0006A017B01EE24FF248C0130E020E0C0168F
:1032B000D106E206F30650F0481B590BCA011F91D4
:1032C0000F91FF90EF90DF90CF90089541505109FA
:1032D000F3CF1F920F920FB60F9211248F939F93EB
:1032E000AF93BF938091670290916802A0916902A9
:1032F000B0916A020196A11DB11D8093670290935F
:103300006802A0936902B0936A02BF91AF919F9146
:103310008F910F900FBE0F901F9018950E9415214E
:10332000F8942FEF87EA91E6215080409040E1F732
:1033300000C0000087E090EBDC0180937A0290935C
:103340007B02A0937C02B0937D0288E19CE00FB6E3
:10335000F894A895809360000FBE90936000FFCF13
:103360008F929F92AF92BF92EF92FF920F931F9313
:10337000CF93C0E0E82EF12C8C2F0E94710C4B01F2
:103380005C0110E000E0D501C401002E04C0B69538
:10339000A795979587950A94D2F780FD13C00F5F84
:1033A0001F4F0331110579F7CF5FC53029F780E052
:1033B000CF911F910F91FF90EF90BF90AF909F9092
:1033C0008F900895602F7C2F80E00E94BD08E81642
:1033D000F90629F781E0ECCFCF93C82F8CE20E9449
:1033E000B019882321F08C2FCF910C94B01980E074
:1033F000CF910895CF930E949018811102C00E942E
:103400007618C5E608C00E946F0B8FE39CE9019710
:10341000F1F700C00000C150B1F789E20E94EC1939
:103420008111EFC08AE20E94EC1981110E94761886
:1034300085E00E94EC1981110E948E190E949B1850
:1034400080933A0287E00E94EC19882371F08BE1A7
:103450000E94EC19882309F4B1C090913A02892F97
:103460008D7F91FF826080933A0280913A020E94A0
:103470009F180E94AD1890E090936C0280936B02AD
:1034800080EE0E94EC19882341F090916B02892F05
:103490008E7F90FF816080936B0289E30E94EC191C
:1034A000882341F090916B02892F8D7F91FF82607C
:1034B00080936B0282EE0E94EC19882341F0909178
:1034C0006B02892F8B7F92FF846080936B0286EE64
:1034D0000E94EC19882341F090916B02892F877F1D
:1034E00093FF886080936B0283EE0E94EC1988231F
:1034F00041F090916B02892F8F7E94FF80618093C1
:103500006B0285E30E94EC19882341F090916B02D5
:10351000892F8F7D95FF806280936B0281E30E94EB
:10352000EC19882341F090916B02892F8F7B96FFD5
:10353000806480936B0281E10E94EC19882341F042
:1035400090916B02892F97FB87F9805880936B02CB
:1035500080916B020E94B11887E20E94EC19C82F7B
:103560008EE10E94EC198111C2608FE10E94EC197A
:103570008111C46080E20E94EC198111C86081E26F
:103580000E94EC198111C06182E20E94EC19811144
:10359000C06283E20E94EC198111C06484E20E943F
:1035A000EC19882341F1C0688C2F0E94A8186C2F59
:1035B00070E090E080E0CF910C944C158EE00E947A
:1035C000EC19882339F090913A02892F8B7F92FF72
:1035D000846049CF80E10E94EC1990913A028823DF
:1035E00029F0892F877F93FF88603DCF892F8E7FB9
:1035F00090FF816038CFC111D7CF0E94A418682FE7
:10360000D7CFCF91089580913E0280FF12C0609184
:10361000050185E0689FB001112475956795759542
:10362000679560387105A8F561157105A1F1862FC0
:10363000089581FF09C06091050185E0689FB00190
:10364000112475956795EDCF82FF07C06091050144
:1036500085E0689FB0011124E4CF20913F0222232E
:10366000A9F0909104016091050185E0689FB00187
:1036700011242917B0F6269FA001279F500D112471
:10368000692F70E0CA010E944C25CBCF65E070E045
:10369000CECF8FE7089581E0089580913E0280FFAC
:1036A0000CC06091030170E07595679575956795FD
:1036B0006115710549F1862F089581FF06C060915B
:1036C000030170E075956795F3CF6091030182FD6A
:1036D0000BC090913F029923A1F06091020180916B
:1036E0000301961738F0682F70E06038710500F319
:1036F0008FE70895899FC001112470E00E944C2536
:10370000F4CF61E070E0D7CF81E00895803F31F4DD
:103710000E94031B8195809342020895813F19F412
:103720000E94031BF8CF823F31F40E94031B819556
:10373000809341020895833F19F40E94031BF8CF40
:10374000893F29F40E944D1B8093430208958A3FCC
:1037500021F40E944D1B8195F7CF8B3F31F40E94DD
:103760004D1B81958093440208958C3F19F40E946B
:103770004D1BF8CF843F31F48091400281608093EB
:1037800040020895853F21F4809140028260F7CF86
:10379000863F21F4809140028460F1CF873F21F47D
:1037A000809140028860EBCF883F21F480914002F5
:1037B0008061E5CF8D3F31F480913E02816080933E
:1037C0003E0208958E3F21F480913E028260F7CF41
:1037D0008F3FB9F780913E028460F1CF803FC1F402
:1037E0008091420287FD1092420280914102811134
:1037F0000EC08091420281110AC080914302811162
:1038000006C080914402811102C010923F020895C7
:10381000813F29F48091420218162CF3E6CF909153
:103820004102823F29F497FFE0CF10924102DDCFA1
:10383000833F19F41916CCF3D8CF893F39F480911E
:103840004302181694F610924302CFCF8A3F29F410
:103850008091430287FFC9CFF6CF8B3F39F4809127
:10386000440287FFC2CF10924402BFCF8C3F29F49D
:10387000809144021816BCF3B8CF843F31F4809194
:1038800040028E7F80934002B0CF853F21F480912B
:1038900040028D7FF7CF863F21F4809140028B7FDD
:1038A000F1CF873F21F480914002877FEBCF883FA3
:1038B00021F4809140028F7EE5CF8D3F31F48091DD
:1038C0003E028E7F80933E0290CF8E3F21F4809106
:1038D0003E028D7FF7CF8F3F09F087CF80913E0268
:1038E0008B7FF0CF80E492E00E94990C0E94331904
:1038F00090933D0280933C0208951F93CF93DF93F2
:1039000080913C0290913D020E943F19AC01909140
:103910003F022091060130E0911106C0209107017D
:103920008AE0289F900111244217530780F080916C
:103930004102C091420210914302D0914402811190
:103940000AC0C11178C0111176C0D11174C0DF91C5
:10395000CF911F9108959F3F19F09F5F90933F0271
:10396000181624F40E94031B8093410280914102A7
:1039700087FF05C00E94031B8195809341021C169E
:1039800024F40E94031B809342028091420287FF2D
:1039900005C00E94031B8195809342026091410201
:1039A000662331F1C0914202CC2311F1062E000CA6
:1039B000770B880B990B0E94532423E333E343E3F3
:1039C0005FE30E94B7240E941B24609341026C2F86
:1039D000CC0F770B880B990B0E94532423E333E31E
:1039E00043E35FE30E94B7240E941B2460934202DA
:1039F000111624F40E944D1B8093430280914302D0
:103A000087FF05C00E944D1B8195809343021D16C0
:103A100024F40E944D1B809344028091440287FF4E
:103A200005C00E944D1B819580934402DF91CF9188
:103A30001F910C94721C9F3F09F08FCFA0CF85E09F
:103A4000E0E4F2E0DF011D928A95E9F710923F026F
:103A500010923E020895809165020895CF93DF93FE
:103A600000D01F92CDB7DEB79C01809171028430E7
:103A700019F593E099833B832A839093E9008FEFB4
:103A80009091E800815095FD06C095ED9A95F1F76B
:103A900000008111F5CF8091E80085FF0DC050E056
:103AA00040E063E070E0CE0101960E94891F8091A2
:103AB000E8008E778093E8000F900F900F90DF91D1
:103AC000CF910895CF93DF9300D01F92CDB7DEB78B
:103AD00020917102243031F522E029838058910928
:103AE0009B838A8383E08093E9008FEF9091E800C5
:103AF000815095FD06C095ED9A95F1F70000811172
:103B0000F5CF8091E80085FF0DC050E040E063E014
:103B100070E0CE0101960E94891F8091E8008E77A7
:103B20008093E8000F900F900F90DF91CF91089550
:103B30009C01809171028430F9F482E08093E90065
:103B40009FEF8091E800915085FD06C085ED8A9534
:103B5000F1F700009111F5CF8091E80085FF0CC0CE
:103B600050E040E065E070E0C9010E94891F80914B
:103B7000E8008E778093E8000895CF93DF93EC01FF
:103B8000809171028430F1F4909112019923E9F04F
:103B900090916B0297FF19C08093E9008FEF90918D
:103BA000E800815095FD06C095E19A95F1F7000077
:103BB0008111F5CF8091E80050E040E060E270E0D4
:103BC00085FD1AC0DF91CF91089581E08093E900CF
:103BD0008FEF9091E800815095FD06C095ED9A9584
:103BE000F1F700008111F5CF8091E80085FFEACF61
:103BF00050E040E068E070E0CE010E94891F8091B3
:103C0000E8008E778093E80080E2FE01A5E4B2E050
:103C100001900D928A95E1F7D5CF809170028111C4
:103C200009C00E9415210E9477218091E2008460E2
:103C30008093E20008951092700208950895089507
:103C40000C94FB1842E061EC81E00E94932042E07A
:103C500061EC82E00E94932042E061EC83E00E94EC
:103C6000932042E261EC84E00C94932080917302F3
:103C7000833009F455C030F4813071F1823009F499
:103C800091C008958A3009F47DC08B3009F463C077
:103C9000893009F044C080917202813209F03FC03E
:103CA0008091760290917702009711F00397B9F511
:103CB0008091E800877F8093E8008091E80082FF90
:103CC0002AC08091F100809365028091E8008B7793
:103CD0008093E8000C94C72080917202813AF9F435
:103CE0008091E800877F8093E80080917602909130
:103CF0007702892B61F460E285E492E070E00E9433
:103D0000D81F8091E8008B778093E800089560E0E9
:103D100090E080E0F3CF809171028111CECF0895C1
:103D200080917202813AD9F7809176029091770260
:103D3000892BA9F78091E800877F8093E800809124
:103D4000E80080FFFCCF809112018093F100809108
:103D5000E8008E77BDCF80917202813201F78091A9
:103D6000760290917702892BD1F68091E800877FC7
:103D70008093E8000E94C720809174028093120112
:103D80000C94781180917202813249F68091E8009A
:103D9000877F8093E8000E94C720809175028093FE
:103DA0006602089580917202813A09F0B8CF80913D
:103DB000E800877F8093E8008091E80080FFFCCFD7
:103DC00080916602C2CF84B7877F84BF0FB6F89414
:103DD000A8958091600088618093600010926000D7
:103DE0000FBE80E880936100109261000E94D10CA8
:103DF0000E9415210E9477218091E20084608093C7
:103E0000E20078940E94FF230E94D30C88E091E0A6
:103E10000E947D0C80917102853019F00E94D90CAE
:103E2000F9CF0E94B61880916F02882399F30E94FF
:103E3000E418882379F30E94731FECCF292F3327CE
:103E40002330310579F158F421303105F1F0223079
:103E5000310519F190E080E030E020E01AC0213215
:103E6000310599F122323105A9F7643098F770E0F5
:103E7000FB01EE0FFF1FE15DFE4F20813181655D8B
:103E80007E4FFB01808190E004C082E190E025E15B
:103E90003DE0FA013183208308958DE690E028EA21
:103EA0003CE0F7CF99278130910561F028F0029727
:103EB00089F6E8E7FCE002C0E4EAFCE0849190E0E7
:103EC0009F01E7CFECE8FCE0F9CF643008F0C2CF07
:103ED000E62FF0E0EE0FFF1FE95CFE4F20813181FD
:103EE00089E090E0D6CF84E189BD86E189BD09B43F
:103EF00000FEFDCF8091D8008F7D8093D800809107
:103F0000E00082608093E0008091E00081FDFCCFC2
:103F10000895AF92BF92CF92DF92FF920F931F93BB
:103F2000CF93DF936C01EB018A010E94E620F82E0B
:103F3000811123C00115110539F0F80180819181AB
:103F4000C81BD90BC80ED91EB12CA12C2097A9F0E3
:103F50008091E80085FD22C08091E8008E778093F3
:103F6000E80001151105A1F0F80180819181A80EEA
:103F7000B91EB182A08285E0F82E8F2DDF91CF91FE
:103F80001F910F91FF90DF90CF90BF90AF90089559
:103F90000E94E6208823D1F2F82EEFCFF60181911E
:103FA0006F018093F1002197FFEFAF1ABF0ACECFC8
:103FB000FC01809178029091790286179707A0F012
:103FC0006115710529F49091E8009E779093E800BF
:103FD00090E06115710551F4911108C08091E800DD
:103FE00082FF33C080E00895BC01F2CF809171025E
:103FF0008823B9F18530B9F18091E80083FD2FC0A5
:104000008091E80082FDEACF8091E80080FFE1CF57
:104010002091F2003091F3006115710519F02830FC
:10402000310558F091E02830310509F090E02091F9
:10403000E8002E772093E800CCCF81918093F100A7
:10404000615071092F5F3F4FE7CF80917102882344
:1040500041F0853041F08091E80083FFBFCF81E0DF
:10406000089582E0089583E00895FC01809178022C
:104070009091790286179707A0F06115710529F4D0
:104080008091E8008E778093E80090E061157105DB
:1040900051F4911108C08091E80082FF34C080E0A3
:1040A0000895BC01F2CF809171028823C1F185305F
:1040B000C1F18091E80083FD30C08091E80082FD6D
:1040C000EACF8091E80080FFE1CF2091F2003091AB
:1040D000F3006115710519F02830310558F091E0B1
:1040E0002830310509F090E08091E8008E778093C8
:1040F000E800CCCF84918093F10031966150710932
:104100002F5F3F4FE6CF80917102882341F08530C9
:1041100041F08091E80083FFBECF81E0089582E006
:10412000089583E00895982F973028F08F7080933A
:10413000E90081E008959093E900242F762F50E064
:10414000981731F07091EC002091ED005091F00043
:1041500021FD02C09F5FE8CF3091EB003E7F30939E
:10416000EB003091ED003D7F3093ED003091EB009E
:1041700031603093EB007093EC002093ED0050938E
:10418000F0002091EE0027FDE5CF80E008958091BA
:10419000720287FF13C08091E80082FF06C0809101
:1041A000E8008B778093E80004C080917102811150
:1041B000F2CF0895809171028823D9F38091E800AD
:1041C00080FFF8CF8091E8008E77ECCF2091E4005B
:1041D0003091E50085E69091EC0090FF06C090914B
:1041E000E80090FF06C080E008959091E80092FDFD
:1041F000FACF90917102992391F0953091F09091BE
:10420000EB0095FD10C04091E4005091E5002417AB
:10421000350709F381509A01F1F684E0089582E0B0
:10422000089583E0089581E008950E9486210E9408
:104230008E21E0EEF0E0808181608083E8EDF0E0A7
:1042400080818F77808319BCA7EDB0E08C918E7F41
:104250008C9380818F7E80831092700208950F93DB
:104260001F93CF93DF930E9486210E948E21C8ED79
:10427000D0E088818F77888388818068888388816F
:104280008F7D8883E7EDF0E080818068808319BCB2
:104290001092710210926D0210926F0210926E02D3
:1042A00000EE10E0F80180818B7F8083888181603F
:1042B000888342E060E080E00E949320E1EEF0E03D
:1042C00080818E7F8083E2EEF0E080818160808358
:1042D000808188608083F80180818E7F80838881DF
:1042E00080618883DF91CF911F910F910895E8ED50
:1042F000F0E080818F7E8083E7EDF0E08081816057
:10430000808381E0809370020C942F21E8EDF0E02F
:1043100080818C7F80831092E20008951092DA00F1
:104320001092E10008951F920F920FB60F92112480
:104330000BB60F922F933F934F935F936F937F939F
:104340008F939F93AF93BF93EF93FF938091E1007F
:1043500082FF0BC08091E20082FF07C08091E100E4
:104360008B7F8093E1000E94FE238091DA0080FF22
:1043700019C08091D80080FF15C08091DA008E7F2F
:104380008093DA008091D90080FF96C084E189BDD6
:1043900086E189BD09B400FEFDCF81E08093710202
:1043A0000E940D1E8091E10080FF19C08091E20003
:1043B00080FF15C08091E2008E7F8093E2008091A3
:1043C000E20080618093E2008091D8008062809357
:1043D000D80019BC85E0809371020E941F1E809155
:1043E000E10084FF29C08091E20084FF25C084E1C0
:1043F00089BD86E189BD09B400FEFDCF8091D8005A
:104400008F7D8093D8008091E1008F7E8093E100C2
:104410008091E2008F7E8093E2008091E2008160D3
:104420008093E20080916D02882309F44BC084E000
:10443000809371020E94201E8091E10083FF29C0B9
:104440008091E20083FF25C08091E100877F809307
:10445000E10082E08093710210926D028091E10090
:104460008E7F8093E1008091E2008E7F8093E20056
:104470008091E20080618093E20042E060E080E0B1
:104480000E9493208091F00088608093F0000E9449
:104490001E1EFF91EF91BF91AF919F918F917F91E0
:1044A0006F915F914F913F912F910F900BBE0F90A5
:1044B0000FBE0F901F90189519BC109271020E94A8
:1044C0001B1E70CF8091E30087FD02C081E0B0CF5A
:1044D00083E0AECF1F920F920FB60F9211240BB64E
:1044E0000F922F933F934F935F936F937F938F938D
:1044F0009F93AF93BF93CF93EF93FF93C091E90046
:10450000CF708091EC001092E9008091F000877FDD
:104510008093F00078940E94AA221092E900809182
:10452000F00088608093F000C093E900FF91EF9164
:10453000CF91BF91AF919F918F917F916F915F913B
:104540004F913F912F910F900BBE0F900FBE0F9088
:104550001F9018951F93CF93DF93CDB7DEB7AA971F
:104560000FB6F894DEBF0FBECDBFE2E7F2E0809158
:10457000F100819322E0EA37F207C9F70E94361E64
:104580008091E80083FF42C0809172029091730293
:104590009A3008F03BC0E92FF0E0EF52FD4D0C944B
:1045A0006025DB22FF220623FF2206235A237C23D9
:1045B0000623D123DE23803879F0823839F58091C3
:1045C00076028F708093E9008091EB0085FB88274D
:1045D00080F91092E90006C080916E0290916F02FE
:1045E000911182609091E800977F9093E80080930A
:1045F000F1001092F1008091E8008E772DC0282FF5
:104600002D7F21F48823D1F0823059F18091E80088
:1046100083FF0AC08091E800877F8093E800809143
:10462000EB0080628093EB00AA960FB6F894DEBF91
:104630000FBECDBFDF91CF911F910895809174027D
:10464000813021F7933009F080E080936F0210925F
:10465000E9008091E800877F8093E8000E94C720EE
:10466000D5CF809174028111F2CF809176028F7044
:1046700069F28093E9002091EB0020FFE8CF9330AE
:1046800031F48091EB0080628093EB00E0CF909159
:10469000EB0090619093EB0021E030E001C0220F2D
:1046A0008A95EAF72093EA001092EA008091EB00E5
:1046B0008860EACF8111AACF109174021F77809190
:1046C000E3008078812B8093E3008091E800877F6E
:1046D0008093E8000E94C7208091E80080FFFCCF13
:1046E0008091E30080688093E30083E0111101C0B2
:1046F00082E0809371028ACF8058823008F086CFA2
:1047000080917402909175028C3D23E09207A1F58F
:1047100083E08A838AE289834FB7F894DE01139697
:1047200020E03EE051E2E32FF0E050935700E491A7
:1047300020FF03C0E295EF703F5FEF708E2F90E097
:10474000EA30C0F0C7968D939D932F5F243159F7BF
:104750004FBF8091E800877F8093E8006AE270E0B5
:10476000CE0101960E94D81F8091E8008B7780933C
:10477000E8004CCFC096E7CFAE014F5F5F4F60912E
:1047800076020E941E1FBC01892B09F43FCF909135
:10479000E800977F9093E80089819A810E943520F4
:1047A000E3CF803809F032CF8091E800877F809393
:1047B000E80080916D028093F1001DCF811126CF1A
:1047C00090917402923008F021CF8091E800877FA9
:1047D0008093E80090936D020E94C72080916D0243
:1047E000882331F084E0809371020E94221E0ECF54
:1047F0008091E30087FDF6CF81E0F5CF0895CF9358
:1048000080917102882399F0C091E900CF70809166
:10481000EC0080FD0EC080E0C82B1092E900809172
:10482000E80083FD0E94AA22CF70C093E900CF91D7
:10483000089580E8F1CF0E9422246894B1110C946D
:10484000B12408950E94962488F09F5798F0B92FBC
:104850009927B751B0F0E1F0660F771F881F991FB5
:104860001AF0BA95C9F714C0B13091F00E94B02483
:10487000B1E008950C94B024672F782F8827B85F93
:1048800039F0B93FCCF3869577956795B395D9F70D
:104890003EF490958095709561957F4F8F4F9F4F17
:1048A0000895E89409C097FB3EF490958095709523
:1048B00061957F4F8F4F9F4F9923A9F0F92F96E96C
:1048C000BB279395F695879577956795B795F111E1
:1048D000F8CFFAF4BB0F11F460FF1BC06F5F7F4F7E
:1048E0008F4F9F4F16C0882311F096E911C0772390
:1048F00021F09EE8872F762F05C0662371F096E899
:10490000862F70E060E02AF09A95660F771F881F67
:10491000DAF7880F9695879597F9089557FD90587F
:10492000440F551F59F05F3F71F04795880F97FB73
:10493000991F61F09F3F79F087950895121613062D
:104940001406551FF2CF4695F1DF08C0161617065C
:104950001806991FF1CF8695710561050894089591
:10496000E894BB2766277727CB0197F908950E9423
:10497000CA240C943B250E942D2538F00E94342532
:1049800020F0952311F00C9424250C942A25112451
:104990000C94B1240E948E2470F3959FC1F3950F5F
:1049A00050E0551F629FF001729FBB27F00DB11DB3
:1049B000639FAA27F00DB11DAA1F649F6627B00D43
:1049C000A11D661F829F2227B00DA11D621F739F2C
:1049D000B00DA11D621F839FA00D611D221F749F3A
:1049E0003327A00D611D231F849F600D211D822F81
:1049F000762F6A2F11249F5750409AF0F1F08823A8
:104A00004AF0EE0FFF1FBB1F661F771F881F9150D4
:104A10005040A9F79E3F510580F00C9424250C943A
:104A2000B1245F3FE4F3983ED4F38695779567957C
:104A3000B795F795E7959F5FC1F7FE2B880F911DFE
:104A40009695879597F9089597F99F6780E870E0A4
:104A500060E008959FEF80EC089500240A941616F4
:104A6000170618060906089500240A94121613065C
:104A7000140605060895092E0394000C11F48823EA
:104A800052F0BB0F40F4BF2B11F460FF04C06F5F06
:104A90007F4F8F4F9F4F089597FB072E16F400947A
:104AA00007D077FD09D00E94692507FC05D03EF4A8
:104AB000909581959F4F0895709561957F4F0895CA
:104AC000EE0FFF1F0024001C0BBE0790F691E02D97
:104AD0000994AA1BBB1B51E107C0AA1FBB1FA61745
:104AE000B70710F0A61BB70B881F991F5A95A9F797
:104AF00080959095BC01CD010895F999FECF92BDA6
:104B000081BDF89A992780B50895A8E1B0E042E008
:104B100050E00C94A525262FF999FECF92BD81BDBA
:104B2000F89A019700B4021639F01FBA20BD0FB6EB
:104B3000F894FA9AF99A0FBE08950196272F0E94C9
:104B40008C250C948B25DC01CB01FC01F999FECF5F
:104B500006C0F2BDE1BDF89A319600B40D92415005
:0A4B60005040B8F70895F894FFCF15
:104B6A0017022808140A321E2B1DBD1D981D621D2E
:104B7A002E1D013536376061626364656667909100
:104B8A009293949596F73031323334404D3639E367
:104B9A000D960D600D270DBA0CD30CEC0C050D000B
:00000001FF
